:4000000000400020110000004D0300004D03000080B500AF00F09EF980B500AF224B12221A6001F0B1F8214B181C00F0A1FF012001F0BAF8302000F0ABFF1D4B1D4A1A6084
:400040001D4B8022D2051A601C4B1C4A126802210A431A601A4B1B4A1A601B4B1A4A126808218A431A60FA23DB00181C00F0DCFF164B181C01F02CF8154B164A1A60164BC0
:40008000164A1A60164B802212061A60154B8022D2021A60144B40221A60074B8022D2051A60BD4680BDC04630001040001BB70004010B40060000800C020B4078002E4054
:4000C0007C002E402D3E00006CF02E40DC05000000030140007FBB000000014040FF008008010B4000010B401C01014080B582B000AF72B63A4B00221A60FB1D00221A7061
:4001000023E0FB1D1A78131C5B009B185B00354A9B183B603B681A78597809020A43997809040A43DB781B061343191C3B681A795B791B0213439BB2081C191C00F08EF94B
:40014000FB1D1A78FB1D01321A70FB1D1B78012BD7D9254A254B101C191C00F08FF9244BEE2212061A60234BC02292041A60224B992212041A60214B992212041A60204B76
:40018000802252051A601F4A1E4B1B78DBB202210B43DBB213701C4A1B4B1B78DBB23C218B43DBB214210B43DBB21370154A154B1B78DBB216210B43DBB21370134BD82256
:4001C00012041A60124B40221A60124BC02252031A60FFF721FF00F091F9BD4602B080BD6CF02E40302501003C25010040250100000002400002024000500F4020500F40DA
:4002000028500F4000700F4001700F4008000440000204400802044010B5064C2378002B07D1054B002B02D0044800E000BF0123237010BD780F0020000000002C2501002E
:4002400008B5084B002B03D00748084900E000BF07480368002B00D108BD064B002BFBD09847F9E7000000002C2501007C0F0020A80B00200000000080B500AF62B6064B93
:40028000181C00F06BF9054B181C00F0FFFA00F00BFE01F0ABFBFCE7A1020000D902000080B584B000AF786039607B68012B02D0282B00D00DE0002000F0E6F90F23FB18AA
:4002C00000221A700F23FB181B78181C00F01EF8C046BD4604B080BD80B584B000AF786039607A68D8235B009A420CD10F23FB18002001211A1C00F039FB0F23FB181B7813
:40030000181C00F003F8BD4604B080BD80B582B000AF021CFB1D1A70FB1D1B78012B07D0022B09D0002B0DD1002000F0EBFD09E0FA2000F0E7FD05E0FA235B00181C00F0C7
:40034000E1FDC046BD4602B080BDC04680B500AFFEE7C04680B586B000AF224B7B61224B3B61204B7B6135E03B691B68FB603B695B68BB603B699B683B6000237B600CE0DA
:40038000FB681A68BB681A60BB680433BB60FB680433FB607B6804337B607A683B689A42EED13B69DB683B6000237B6008E0BB6800221A60BB680433BB607B6804337B60AB
:4003C0007A683B689A42F2D13B6910333B617B69013B7B617B69002BC6D101F091FAFFF74BFFFEE701000000C028010080B582B000AF154B144A126801218A431A6000234F
:400400007B600FE07B68032B04D8104B7A689200D35800E00E4B0F4A796889008B507B6801337B607B682F2BECD9FFF75FFE0A4B00221A60044B044A126801210A431A60FC
:40044000BD4602B080BDC04600001040000000004D03000000000020C000002080B582B000AF786039607A683B68101C00211A1C01F084FABD4602B080BDC04680B586B083
:4004800000AF7860396000233B6100237B612FE07B699B007A68D3181B68BB600F23FB18BA681A70BB68FF229343BB6018E03B695B003A68D3181B781A1CBB68D318191CAF
:4004C0003B695B003A68D3185B780B703B6901333B610F23FB181A780F23FB18013A1A700F23FB181B78002BE1D17B6901337B617B69002BCCD0BD4606B080BD80B500AF9F
:40050000054B03221A60054B03221A60044B00221A60BD4680BDC0463000304030003140000E3F4080B500AF064B00221A70064B00221A70054B00221A7000F009F8BD4610
:4005400080BDC046A7200020A0200020A620002080B500AF00F096F9BD4680BDB0B594B004AF78603E23FB1800221A802823FA183E4B111C1A1C1423081C111C1A1C01F08C
:40058000F4F93B4B1B78002B04D1FFF7CBFF384B01221A707B68002B5CD0364B7A681A603E23FB181B88002B29D11023FB181C22BA185A601023FB182022BA181A601023DB
:4005C000FB1800221A812023FB181B221A802023FB181B225A802023FB1804221A711C23FB1800221A703E23FC181023FA180E23FB18101C191C01F0CFFA031C23803E2350
:40060000FB181B88002B29D13E23FC181A481B49AE231A012823FD180523009300230193002302932B1C01F013FA031C23803E23FB181B88002B11D1114B01221A703E2399
:40064000FC18104B181C10210C220DF0ADF8031C238003E03E23FB1801221A803E23FB181B88181CBD4610B0B0BDC04648250100940F0020982000201D0B0000C800002066
:400680009E2000206425010090B585B000AF021CFB1D1A70FB1D1B78022B04D90E23FB1801221A804BE0294B1B78042B42D1284B1B78DBB21A1C042313403BD1FB1D1B78C5
:4006C000002B0BD1234B1E221A82224B5B6820221A80204B5B6830225A8010E0FB1D1B78012B0CD11B4B96221A821A4B5B68C822D2001A80174B5B688022D2015A80164B92
:40070000FA1D12781A700E23FC18124B181C0BF087F9031C23800E23FB181B88002B08D10B4B1B78DBB204221343DAB2084B1A7005E004E00E23FB180422FF321A800E2306
:40074000FB181B88181CBD4605B090BD9E200020A7200020FC0B0020A620002080B584B000AF78600A1CFB1C1A700023BB60BB68002B20D07B689A79BB681A700F23FB189D
:4007800000221A7012E00F23FB181B780133BA68D3180F22BA18127879688A5C1A700F23FB181A780F23FB1801321A700F23FB181B78052BE7D9BD4604B080BD80B582B0A8
:4007C00000AF78607B681B789AB27B6801331B789BB21B029BB213439BB2181CBD4602B080BDC04690B585B000AF78600F23FB1800221A707B689B890D22934237D17B6898
:400800001A1D7B680F217C18101C00211A1C40230DF018F8031C23700F23FB181B78002B1DD17B685B68181CFFF7C8FF031C1A1C022313409BB2002B08D0104B1B6882220E
:4008400051007A68081C111C984708E00B4B1B680622FF32111C7A68081C111C9847084B1B78DBB201229343DAB2054B1A700F23FB181B78181CBD4605B090BD9820002001
:40088000A720002080B500AFBD4680BD80B582B000AF7860024B7A681A60BD4602B080BD980F002080B584B000AF0F23FB1800221A7010223B1C1A813B1C0F22BA181A60DC
:4008C0003B1C01229A803B1C181C0021002200230CF0B8FFBD4604B080BDC04680B584B000AF78601F4B1B68002B37D010227B689B899A4232D17B681B89012B2ED17B680A
:400900005B681B78022B29D87B681A1D7B68101C00211A1C40230CF095FF031E1ED10823FB187A6812881A800823FB1800229A707B681A1D0823FB185A600A4B1B68D8220E
:4009400051000822BA18081C111C9847064B1B78DBB201229343DAB2034B1A70BD4604B080BDC046980F0020A720002080B586B000AF3A60FB1D021C1A70BB1D0A1C1A7088
:400980001623FB1801221A803B68002B22D0FB1D1B78002B1ED1BB1D1B78012B1AD110220823FB181A81BB1D1B789AB20823FB189A800823FB183A681A600823FB18181C41
:4009C000002100220CF008FF031E03D11623FB1800221A801623FB181B88181CBD4606B080BDC04690B585B000AF78600F23FC187B68181CFFF7F6FE031C2370144B1B78A9
:400A0000DBB21A1C012313401FD10F23FB181B78002B16D00823FB1812229A707B689A890823FB181A800823FB180F22BA181278DA707B680822BA181868111C0CF012F9A1
:400A400003E07B6818680CF08FF9BD4605B090BDA720002080B582B000AF7860BD4602B080BDC04680B500AF044B00225A70034B00221A70FFF716FFBD4680BDA420002092
:400A800080B582B000AF7860BD4602B080BDC04680B500AFBD4680BD80B584B000AF78600E23FB1800221A707B689B79002B1CD10F23FB1800221A7012E00F23FB181B7882
:400AC0007A68D35C002B04D00E23FB1801221A700BE00F23FB181A780F23FB1801321A700F23FB181B78052BE7D90E23FB181B78181CBD4604B080BD80B582B000AF021C36
:400B0000BB1D1A80BD4602B080BDC04680B582B000AF7860BD4602B080BDC04680B586B000AF021C3960FB1D1A70B14B1B78DBB201221343DAB2AE4B1A70FB1D1B78712B07
:400B400000D93AE19A00AB4BD3181B689F460C23FB1806221A700C23FB1800225A700C23FB18181C02F098FE0C23FB1806221A700C23FB1801225A700C23FB18181C02F0F3
:400B80008BFE9D4B1B68181CFFF786FF031E11D0994B1B68181C00F02DFF974B1B68181C0021FFF7DBFD944B1B68181C0121FFF7D5FD0DE0914B181C00F01CFF8F4B181CBB
:400BC0000021FFF7CBFD8D4B181C0121FFF7C6FD03200AF0D5FD0823FB183F221A700823FB1800225A700823FB18181C0AF0E6FD834B04221A70E1E03B68181CFFF740FF53
:400C0000DCE03B681A787F4B1A70D7E03B683B613B691B78002B18D13B695B78002B0BD1794B0022DA80784B00229A80764B774A1A603B69744A5A606D4B1B78DBB201225E
:400C40009343DAB26A4B1A70B8E0B7E0684B1B78DBB21A1C2023134016D16D4B1B78102B02D16B4B0522DA706A4B1A78684B101C191C0AF095FE5E4B1B78DBB20122134374
:400C8000DAB25B4B1A7099E098E03B68181CFFF73DFF93E03B68181CFFF738FF584B02221A708BE0564B04221A7087E0544B1B78022B34D04E4B1B78DBB21A1C01231340CA
:400CC0002DD04B4B1B78DBB21A1C042313400BD04B4B03221A70464B1B78DBB204229343DAB2434B1A701AE0414B1B78DBB21A1C082313400BD0424B04221A703C4B1B7894
:400D0000DBB208229343DAB2394B1A7007E03C4B1B78032B03D13A4B04221A704EE04DE03B681B88181CFFF7E7FE47E0394A3B68111C1A1C0223081C111C1A1C00F015FE45
:400D4000304B00221A70FFF7A3FE37E0FFF78AFE34E03B685B88162B05D81623FB183A6852881A8003E01623FB1817221A803B681622BA1811881A8800231204120C1B0C9E
:400D80001B041343181C0BF077FF17E03B68181CFFF728FE12E0164B1B78DBB21A1C0123134004D03B68181CFFF798FD06E005E03B68181CFFF74EFE00E0C0460C4B1B7825
:400DC000DBB21A1C112313400FD0094B1B78DBB201229343DAB2064B1A700F4B1B68FA1D11783A68081C111C9847BD4606B080BDA7200020A4260100180C0020100C00207F
:400E00009E200020A02000209C0F0020A80B0020700C0020A42000209820002080B500AF104B8022D2041A600E4B0E4A12681A60002000F04BF80B4B0A4A12681A600A4BE2
:400E40000C221A60012000F087F8084B31221A60FA235B00181C00F047F8FA2000F052F8BD4680BD00012040240120402801204090B583B000AFFC1D00F083F8031C2370DF
:400E8000084B084A126801210A431A60FB1D1B78181C00F07AF80120182100F041F8BD4603B090BD0000204080B500AF064B1B78002B04D1FFF7B2FF034B01221A70FFF7A3
:400EC000D7FFBD4680BDC046A40F002080B582B000AF7860034B7A681204120C1A60BD4602B080BD0801204080B582B000AF7860034B7A681204120C1A60BD4602B080BD1E
:400F00001401204080B582B000AF7860034B7A681204120C1A60BD4602B080BD0C01204090B585B000AF786039600F23FC1800F028F8031C2370074B3A68796891400A1CA3
:400F40001A600F23FB181B78181C00F01EF8BD4605B090BD0800204080B582B000AF7860024B7A681A60BD4602B080BD380120400230800803D00138FDD1C046C046C046B0
:400F80007047EFF3108072B6704780F31088704790B58BB000AF78602723FC18FFF7F1FF031C2370184B1A680C23FB181A60174B1A680C23FB185A607B68033B144AD35C3B
:400FC0001A1C0C23FB189A60124B1A680C23FB18DA601C23FB18104A1A600C23FA181C23FB185A600D4B1C22BA181A600C4B0D4A1A600A4B1B682723FB181B78181CFFF7B5
:40100000C4FFBD460BB090BD08010B4000010B406C28010030001040B6EA000008001040040010401700008080B584B000AF78600023FB60154B154A126801210A431A60BA
:40104000134B144A1A60144B134A1268802109020A431A607B68002B12D01023FB600CE0012000F035F800F019F8031E02D00023FB6005E07B68013B7B607B68002BEFD1CA
:40108000FB68181CBD4604B080BDC04660F02E4078002E400220000010002E4080B582B000AF054B1B68012213407B607B68181CBD4602B080BDC0460C002E4080B582B031
:4010C00000AF021CFB1D1A7001BEBD4602B080BD80B582B000AF021CBB1D1A80BB1D1B88044A12785343181CFFF742FFBD4602B080BDC046800C002080B500AF0E4B0E4A9D
:40110000126801218A431A600B4B0B4A126802218A431A60094B094A126830218A4310210A431A60054B054A126807218A4301210A431A60BD4680BD00F02E4000FF2E4004
:4011400080B500AF0E4B0E4A126802218A431A600C4B0C4A126807218A4302210A431A60084B084A126830218A4320210A431A60034B034A126801210A431A60BD4680BD6D
:4011800000F02E4000FF2E4080B500AFFFF7B4FF044B044A1268802109060A431A60BD4680BDC04600F02E4080B584B000AF78600C4B1B6801221340FB607B68002B02D02A
:4011C000012B03D005E0FFF797FF06E0FFF7B8FF03E00020FFF772FFC046FB68181CBD4604B080BD00F02E4080B582B000AF78600A1CBB1C1A80BB1C1A887B681A60BD4635
:4012000002B080BD80B582B000AF78600A1CBB1C1A80BB1C1A887B681A60BD4602B080BD80B584B000AF494B1B78DBB21B02484A1278D2B21343FB60464B1B78DBB21B026A
:40124000454A1278D2B21343BB60BB68434A934207D1FB68072B04D1414BBB600423FB6009E0BA68D4231B019A4204D1FB68042B01D13B4BBB603B4BBA681A603A4BFA6893
:401280001A603A4B1B78DBB21B02394A1278D2B21343FB60FA6880239B019A4202D0FB68002B01D1334BFB60334BFA681A60334B1B78DBB21B02324A1278D2B21343FB60D8
:4012C000FB68304A934206D0FB682F4A934202D0FB68052B01D12D4BFB602D4BFA681A602C4B1B681B097B602B4B1B68AA2B29D17B68012B26D9214B1B78DBB20E2B21D1D1
:40130000264B1B78DBB29BB21B0299B2244B1B78DBB29AB2BB1C0A431A80224BBA1C12881A60214B1B78DBB29BB21B0299B21F4B1B78DBB29AB23B1C0A431A801C4B3A1C65
:4013400012881A60BD4604B080BDC046D9F0FF0FD8F0FF0FDFF0FF0FDEF0FF0F580B0000580D00006C002E4074002E40DBF0FF0FDAF0FF0F0220000078002E40DDF0FF0FE1
:40138000DCF0FF0F0F0F000005050000050F000080002E40EC0F00F0E00F00F06DF2FF0F6CF2FF0F84002E406FF2FF0F6EF2FF0F94002E4080B582B000AF021CBB1D1A800F
:4013C000BB1D1B88181CFFF783FEBD4602B080BD80B500AF00F0DEF8BD4680BD80B500AF00F0E2F8BD4680BD80B500AF00F0DCF8044B181C00F09CF8032000F0A5F8BD469B
:4014000080BDC046F115000080B500AF024B181C00F07CF8BD4680BDF115000080B500AF0223FF33181CBD4680BDC04680B582B000AF78602B23181CBD4602B080BDC04637
:4014400080B582B000AF78602B23181CBD4602B080BDC04680B582B000AF78602B23181CBD4602B080BDC04680B582B000AF78602B23181CBD4602B080BDC04680B582B0CD
:4014800000AF78602B23181CBD4602B080BDC04680B582B000AF78602B23181CBD4602B080BDC04680B582B000AF78602B23181CBD4602B080BDC04680B582B000AF78606D
:4014C0002B23181CBD4602B080BDC04680B500AF2B23181CBD4680BD80B582B000AF021CFB1D1A702B23181CBD4602B080BDC04680B582B000AF786039602B23181CBD4670
:4015000002B080BD80B500AFBD4680BD80B582B000AF786000F048F87B68181C00F008F8032000F011F800F035F8BD4602B080BD80B582B000AF7860024B7A681A67BD46A7
:4015400002B080BD0000002090B585B000AF021CFB1D1A700623FB600B23FC18FFF711FD031C23700A4B0A4A1268C0218A43111CFA1D1078FA689040021C0A431A600B2315
:40158000FB181B78181CFFF700FDBD4605B090BD0CE400E080B500AF024B802252011A60BD4680BD00E100E080B500AF024B802252011A60BD4680BD80E100E090B583B04F
:4015C00000AFFC1DFFF7DDFC031C2370074B074A126804218A431A6030BFFB1D1B78181CFFF7D3FCBD4603B090BDC04610ED00E080B500AF10F086FFBD4680BD002243088A
:401600008B4274D303098B425FD3030A8B4244D3030B8B4228D3030C8B420DD3FF22090212BA030C8B4202D31212090265D0030B8B4219D300E0090AC30B8B4201D3CB0304
:40164000C01A5241830B8B4201D38B03C01A5241430B8B4201D34B03C01A5241030B8B4201D30B03C01A5241C30A8B4201D3CB02C01A5241830A8B4201D38B02C01A52412F
:40168000430A8B4201D34B02C01A5241030A8B4201D30B02C01A5241CDD2C3098B4201D3CB01C01A524183098B4201D38B01C01A524143098B4201D34B01C01A524103093D
:4016C0008B4201D30B01C01A5241C3088B4201D3CB00C01A524183088B4201D38B00C01A524143088B4201D34B00C01A5241411A00D20146524110467047FFE701B5002094
:4017000000F0FCF802BDC0460029F7D003B5FFF775FF0EBC4243891A1847C04603460B437FD4002243088B4274D303098B425FD3030A8B4244D3030B8B4228D3030C8B427E
:401740000DD3FF22090212BA030C8B4202D31212090265D0030B8B4219D300E0090AC30B8B4201D3CB03C01A5241830B8B4201D38B03C01A5241430B8B4201D34B03C01AD7
:401780005241030B8B4201D30B03C01A5241C30A8B4201D3CB02C01A5241830A8B4201D38B02C01A5241430A8B4201D34B02C01A5241030A8B4201D30B02C01A5241CDD22D
:4017C000C3098B4201D3CB01C01A524183098B4201D38B01C01A524143098B4201D34B01C01A524103098B4201D30B01C01A5241C3088B4201D3CB00C01A524183088B4255
:4018000001D38B00C01A524143088B4201D34B00C01A5241411A00D201465241104670475DE0CA0F00D04942031000D34042534000229C4603098B422DD3030A8B4212D31C
:40184000FC22890112BA030A8B420CD3890192118B4208D3890192118B4204D389013AD0921100E08909C3098B4201D3CB01C01A524183098B4201D38B01C01A52414309D4
:401880008B4201D34B01C01A524103098B4201D30B01C01A5241C3088B4201D3CB00C01A524183088B4201D38B00C01A5241D9D243088B4201D34B00C01A5241411A00D264
:4018C0000146634652415B10104601D34042002B00D54942704763465B1000D3404201B5002000F00BF802BD0029F8D003B5FFF715FF0EBC4243891A1847C0467047C04654
:401900000E4B70B500251E1C0D4CE41AA410A54204D0AB00F35898470135F8E710F0BEFF084B00251E1C084CE41AA410A54204D0AB00F35898470135F8E770BDA828010002
:40194000A8280100A8280100B028010030B50024944208D0035D651C0C5DA34201D0181B02E02C1CF4E7002030BD002310B5934203D0CC5CC4540133F9E710BD031C821886
:40198000934202D019700133FAE77047134A1088810703D08107890F401A001D11791030484381B25088820703D08207920F801A001D800040180A494030098980B2CA0777
:4019C00001D0503080B2890706D504495422091F09785143081880B2704700008E0C0020A80F002010B501F0ABFE10BD10B500F04FFA10BD10B5074904460978022000293D
:401A000007D1204601F0ECFE002802D1204609F0ADFF10BDF80D002070B504460120002C12D02368002B0FD0616800290CD0074D06222889208118462968FFF796FF69687B
:401A4000606809780170002070BD0000A80F0020FFB585B0002768460E9D07734C481C460078002802D0082009B0F0BD10990F9801900095029105A807C800F0FBF800281F
:401A8000F2D16946264603AB84460873002C19D0002115E08A00B75A082F09D990198078002805D0083FB7521878401C187005E0002915D00027B75290198770491CC9B271
:401AC000A942E7D360460028CED10F9800280AD0109901F0E9F90006000E04D00120C3E701208446EEE701F02BFE2948002101610C300599016021888180022D03D3A1792A
:401B00008171A17AC17100211EE0481C19E082008B00A75AE65ABE46BE4211D26F463E80B4461E190296B678BE7001967646E6521719029EBB78B3706646A652019EBE70FB
:401B4000401CA842E3D3491CA942DED3114800906846037B22460799069800F013F9002882D168460A4C007B60700A4801F018FE0028B4D1204607490C3006F021FF0028B1
:401B8000ADD106F03BFF0028A9D1012121706BE7880C0020A80F0020F8B5054633480E460078002802D002242046F8BD002E5BD000242F49002D16D02A89D0070DD02868CC
:401BC000002808D003881B3BE12B04D24088FB2801D81B2801D2012409E0900707D56868002804D1F7E70020088108604860002CDAD11F482F8907811C481B21801D018027
:401C000041800421017119490020891C0870F80705D016480622801D2968FFF7A6FE1449B80703D56A681148127882700F480D46801D0860001F486001F0F8FD0B48801DA4
:401C400001F0E6FD28890CF0ABFE28890DF012F803461033FFF79AFE1F21C018890140180249308088809FE701249DE7880C0020A80F0020FFB58446384F1C460020BB88E7
:401C80003F78054602460646002F11D100290ED0029999420BD36146002908D0002C06D00A99002906D02E4B0B99994202D2012004B0F0BD002144E0AB001F19BF78002FFA
:401CC0003BD0E35A002B38D07B43591889B22B0000F04AF8050410161C253100A7782388BC46FF27233BEB37BB4222D26346032B1FD322E0A388002B1FD0302B19D31CE04B
:401D00002389002B19D0282B13D316E0A289002A13D01346134F233BBB420AD20DE0268A002A0AD033460F4F233BBB4201D2964203D901200EE0002001E000280AD16D1C94
:401D4000EDB2099B9D42B7D31C2463435B1802998B42ACD89642AAD8AAE70000880C002079020000BAFF000030B47446641E2578641CAB4200D21D46635D5B00E31830BC3E
:401D800018470000FFB583B0002469460C801F4606468C80002806D00598002803D004983043800701D0012467E0002FFBD03449049809888842F6D3FFF726FBFFF70EFB0B
:401DC00000F010FC002856D100F06CFD002852D12C49084601F09CF805042D0C4BD12A480499066081800021C18007810C98007AC00704D0684601F0BCFC040007D10C985E
:401E0000007A800703D501A801F0BCFC0446BF1DFEB2002C21D13146059800F05DF804001BD10CF035FF0406240E16D16A461088928808368518144AF1B29088D288AEB2D7
:401E40009319984207D3401B801A80B201F050FB050007D000E0FF25012400F05BFA002D04D008E0F8B200F01BF9F6E700F07EFA06490120087000F0C7FB204607B0F0BD15
:401E80008C0C0020C51F0000B40F00209C0C002010B503480078012801D101F0CBF910BD9C0C002070B5084B0446DA889E8800205518B54206D81D68AA182260DA885118CE
:401EC000D98070BD032070BDB40F00200148008970470000B40F0020F0B587B007460D4600208900009006916846FFF7DBFF844600285DD1304800990160002117E02E4BD0
:401F000088001A680629115406D22C4C0419667882185670628805E0C419203CA67A8218567022891B68C018491C4280C9B2A942E5D300242DE0601CC2B2059025E01E4F5D
:401F4000A30039689600581840887118039604904E88B04217D938466F46FE80B6464F786E4677710297049F4F800168039F5E18767879184E700168764659184E8000683C
:401F8000029F18184770521CD2B2AA42D7D30598C4B2AC42CFD36046002809D168460699FFF780FF8446002802D1054900980860604607B0F0BD0000A00C0020D028010022
:401FC000A40C00207047000010B5002809D005494A68002A05D0011F08788000105801F035FA10BDA00C002010B50446FFF76EFFC0B2801DA0420CD307484068002808D01B
:40200000A100405801F094F9002801D00470001D10BD002010BD0000A00C0020F8B516460D460446FFF752FFC0B2801DA04203D20020C0430090F8BDB2B2E9B2684601F020
:402040009DF90099481C03D0024AA000526811500098F8BDA00C0020F8B50746FFF736FF801DC6B20A49002005460C680DE06178002907D06188B94202D32078FFF7B4FFAE
:40208000002804D1241D6D1CEDB2B542EFD3F8BDA00C002010B5002801D0FFF795FF10BD70B506460948002504680BE06178002905D062882078121D0023FFF7AFFF241D9D
:4020C0006D1CEDB2B542F1D370BD0000A00C0020FFB581B00A9C16002BD000F0F1F80546042826D0214F002C0BD02046FFF7B4FF2901C919486000281BD022460499FFF7DA
:4021000034FC1A4928010E5046187481019805707D20029CC000444300F0C0F8009004280AD000F055FAA0420ED800F051FA201A06E0FF2005B0F0BD204600F0ADFA002064
:40214000B08135720020F5E700F042FA074600F0B9FA381B87B23846012100F0EFF800980101024808188781E6E70000C00F0020F8B5060117483418217A042903D0A08981
:40218000002802D018E00020F8BD00F021FA054600F098FA00F0A2F804280DD001010D480F18B88941198DB2002100F0C7F80020B881284600F070FA6068064D002801D090
:4021C000FFF768FF042020720020A8516081A081D9E70000C00F0020FEB500266A46304601232549050169180D7A042D02D0898900291BD000211154401CC0B20428F0D3F7
:4022000000246846005D002830D01B482101081841894768056802910021016041600422418102728181002E02D015E01354E3E700F054F804280ED001010F480818019032
:4022400086890021304600F079F8019800218181304600F021FA0126002D07D038460299A847002F02D03846FFF714FF641CE4B2042CC6D3FEBD0000C00F00200EB50020F3
:4022800005216A460090118150810348694600680DF073FB0EBD0000A80C0020074A0020010189180B7A042B02D08989002903D0401CC0B20428F3D370470000C00F0020DB
:4022C0000549002002015218127A042A03D0401CC0B20428F6D37047C00F002030B50A4B04200A4C00210A011219157A042D06D09289002A03D09A4201D808461346491C93
:40230000C9B20429EFD330BDFFFF0000C00F00207047000030B50020074C05460423020111190B72A5504D60401C4D81C0B28D810428F4D330BD0000C00F002030B5094CD9
:4023400000231A011219157A042D04D09589002906D02D1895815B1CDBB2042BF1D330BD2D1AF7E7C00F0020002070471CB5002469460C70142001902346054A05480DF032
:4023800001FB04480068401C00D1FF2420461CBDE9230000A80C00203EB5124A0146FF2000230124126800290DD0012914D0042908D104206946009308814B8110460DF05F
:4023C000DCFA80B23EBD6846009304814381694610460DF0CDFAF4E768460093048143816946EBE7A80C002070B545890468416800890300FFF7B8FC08280509091E2228E0
:402400002628002005F0EEF91EE0022908D0C8B22A4621460BF074FC2046FFF73BFE13E002202A4621460BF06BFC2946204600F00DF809E000200CF08FFF05E02046FFF714
:40244000CBFE01E0FFF75EF8002070BD014B0022DB681847AC0C002070B5448905680089022803D0032809D0FF2070BD2246094C0023A46829460120A04708E0FFF7B2FA0F
:40248000241DA2B200232946022006F04AF9002070BD0000AC0C002070470000024800214160018041807047AC0C002070B50C46002186B016460391012802D0022859D1D4
:4024C00016E003A9012006F08CF901281BD1039D324621462846FFF748FA0095287801900220694608814E816846FFF7B5FF41E0214D002B686809D0049004A9022006F061
:4025000070F901281DD0022006B070BD002812D0298840182146FFF728FA28880024801980B228806988091D884206D12C801348FFF792FF03E00320E6E788421AD96C609C
:4025400018E004986860E278A378110219430B4A698000231060E3565360032313815181A1788170E178C1706178417021780170042028800020C7E7AC0C00200010002008
:402580003EB515460C46022803D004280CD000203EBD0091019002206946088107484A8100680DF0EAF907E00BF0AAFB044B0022DB6829462046984701203EBDA80C00209E
:4025C000AC0C0020014AD16090607047AC0C0020034801688068081A0A214843000970470C10002010B5FEF7FFFE482204490548FFF7BBF903490120C870002010BD0000A1
:40260000EC2801001014002010B5FEF7E1FE10BD70B5134C2368002B08D0207B1149C20705D04008400020738868A08070BD88680B4AA18880B29268814203D90A4D691ACB
:40264000091802E0814202D2411A5118A160A080A0689842EAD30DF0ADF900F013F870BD0C100020C0102E40FFFF000010B508461946FFF7A7FF10BD704710B5FFF780FF2D
:4026800010BD000003480021016041608160C160704700000C100020024610B5FF20002A0CD0FFF7EFFF064C0321207B0843207310010A21FFF728F82060002010BD000026
:4026C0000C10002000B504480A21806848430209FFF7D8FF104600BD0C1000200248007B8007C00F704700000C10002010B544490868002802DA434B01221A7002229043D2
:402700000860414800693E49C00B4031096A08425ED0012000F086FA3B483C497C30FEF771FD37480E216C30FEF76CFD364820218430FEF767FD344814219C30FEF762FDA4
:402740003148FF21C131A430FEF75CFD2E48FF212F31B030FEF756FD2B482D49BC30FEF751FD29482B49AC30FEF74CFD29492648491CB430FEF746FD23482749B830FEF75E
:4027800041FD21482549CC30FEF73CFD1E4824490830FEF737FD1C482249A830FEF732FD194821498830FEF72DFD17481F498C30FEF728FD14481921C9029030FEF722FD67
:4027C000FEF72EFDFEF72AFEC0B2022802D00FE0FF2010BD16491748FEF714FD15481649001DFEF70FFD134800210830FEF70AFD54200449C043891C0870002010BD000037
:4028000000F02E40BC0C002000002E4055650000320300002F3F00003102000010520000EC160000FA12000031D000003AE300009956000080012E40F80F000070B5064670
:40284000581C80B245086D00002408E0304600F0C1F81055000A1119A41C4870A4B2AC42F4D3D80705D0D0182038D15CC47FD454C17770BD30B50A4C002100195B1E07E0EB
:40288000541864782502545C2C430480891C89B29942F5DB994201D1515C018030BD000000102E4010B5FF2000F0BCF90F49FF2048700E481021801D418001214170017054
:4028C0000A490020C91C4870FFF710FF04000AD100F008F907210648FEF786FC044807211830FEF781FC204610BD0000BC0C0020CC112E4070B5002405465B1E0AE028460D
:4029000000F068F8010A161971702D1D1055A41CADB2A4B29C42F2DB9C4203D1284600F059F8105570BD000070B500210A4D5B1E0AE0541864782602545C344346193480C0
:40294000001D891C80B289B29942F2DB994202D1515C4019018070BD00102E40F0B50599091FCFB200217E1E0BE0541864782502545C2C43164D45192C80001D891C80B21D
:4029800089B2B142F1DBFC0712D01C78515C24020F4A0C4381180C809C785D78001D210280B2294384182180001D80B2D9780CE059781A7809021143054A84182180001D09
:4029C000D9789B78090280B2194380180180F0BD00102E40014940180088704700102E4010B50B490020487000F07CF8002000F03FF9002000F02CF907210648FEF7F4FB0B
:402A0000044807211830FEF7EFFB002010BD0000BF0C0020CC112E4010B50B46062812D006DC01280CD0032801D1FFF7D9FF10BD0A28FCD00B28FAD105480078107010BD25
:402A4000FFF730FF10BD1146184600F02DF910BDC20C0020F8B5204DAC6A0127A0071F4E002816DA307806280ED1286A384328621B480069F903084381B219481030FEF732
:402A8000C1FB042000F0CEF8134802212830FEF7ABFBE00711D0062000F0C4F80F49FF20C91E48707078002802D1686B38436863094801212830FEF797FBE0050BD53078A4
:402AC000042802D1052000F0ADF80348FF2101312830FEF789FBF8BD40F02E40BF0C002000002E4010B503212348FEF78BFB0120FEF760FC20483038406A204C800761787C
:402B0000800F890001431C480C38FEF77BFB6078002808D0401E022181401820FEF7E4FEC000083800E0B82081B21548FEF76AFB1348032109021438FEF764FB104811497F
:402B4000B830FEF75FFB612189010F48FEF75AFB0D480321001FFEF755FB0C490C48FEF751FB0B480B496038FEF74CFB084801218838FEF747FB10BD70F02E40C20C00203D
:402B8000D8102E4090890000041E2E40FF0F000058122E40209000000849087806280BD148780749002803D1486B400840004863C86A01221043C86270470000BF0C00203F
:402BC00040F02E400148007870470000BF0C002000B50300FFF7C8F8080D050D0B070507090D012000BD032000BD042000BD022000BDFF2000BD0000074A9168D26889B2F2
:402C0000064B92B2994204D105498A4201D1012100E000210170704780002E4033D000003FE3000010B50446FEF7D8FB072C01D9FF2C01D102480470FEF7CAFB10BD0000DF
:402C4000BF0C00200149487070470000BC0C002010B5064A012805D01921C9021046FEF7D1FA10BD1D21C902F8E7000090002E4010B50A4A141D012808D009491046FEF7FF
:402C8000C1FA08492046FEF7BDFA10BD04491046891CFEF7B7FA0349491DF3E788002E4031D000003AE3000070B50C460546FEF7B5FBC0B202280E49287804D0FF2810D0C6
:402CC0004C280CD810E0FF2809D10A4AD0680004800F032801D0087807E09069000A553803E00878207070BD4F382070087070BDBE0C002000002E40F0B50122002830D055
:402D000000292ED00424420600D00524792342065B06D21800D0641C034600221EE00C2516466E43104D00277519AF720E4F002ABB51696007D0661EB24209D10B4E86192D
:402D40007606760E05E05E06760E8027BE1B00E080269B198919521C2E81D2B2A242DED300221046F0BD00009812002079020000074900200C2242435218927A012A05D0F1
:402D8000401CC0B20628F5D3002070470120704798120020F8B50F000446164609D0184D18496868A04202D94018A04201D38E4201D90120F8BD39462046FEF7C7FD0028F4
:402DC0001BD0324639462046FEF7CFFDF0B200210C224A43521913895668F718A74208D90127A41B1B1B9772834206DAC01A1469C0B2491CC9B20629EAD30020F8BD000079
:402E0000981200207902000010B500F05DF80748054AC16806480C46FEF7A7FD04492046FFF76AFF10BD000079020000C80C00201C100020002070470020054A002902D068
:402E4000012902D002E0506000E0906000207047C80C002070B5084C154608460549A26889182A46FEF781FDA0684019A06028B270BD00001C100020C80C00203EB50A2264
:402E80006946FFF7E7FF044606480A2200686946FEF75CFD002802D00020C0433EBD20463EBD0000C80C0020002802D0044A914201D2FF20704703490A61C8600020704777
:402EC00079020000C80C0020024800214160816070470000C80C002070B5074C15460548626880182A46FFF755FF60684019606028B270BD1C100020C80C002010B5034956
:402F00000A220968FFF7E8FF10BD0000C80C002010B50F4A002313600E4A13600E4B18600E4801600E49012008600E490860000290600E490C4808600D4914300860FF3872
:402F40001538506000F0BCF800F0CAF9002010BDF40C0020DC0C0020080D00200C0D0020F80C0020E80C0020E0130020EC0C0020000D0020014610B50020002910D0094B61
:402F80001A689C685118A14209D25868196080188A0704D08A07920F891A091D196010BD002010BDDC0C0020F8B50024164E671E321F3D463168136806E014226243103253
:402FC0008A58521C1BD0641C9C42F6D36A1C14D02C461422544322460C3288500C214843FFF7C8FF3168002808510AD031680020103408517068401C70602846F8BD2546F7
:40300000E4E73846F8BD0000EC0C0020F3B50026F64381B000281BDB1E490968884217D80299002914D01B4F142204463F1D54432546396810354859401C09D0FEF7CEF92B
:4030400038682F1F4159C359994203DBFEF7C0F93046FEBD214608310091465801590C20704308180C220299FEF77FFC0948761C001D0068C159B14200D100260549009A5F
:40308000091D865008684159491C4151FEF7A0F90020FEBDE80C0020002803DB07490968884202D90020C043704704491422091D096850431030085870470000E80C002038
:4030C000F0B500200D4A451E0346171F50600FE014260146714314680E1DA3510C461668083433511668083435511468401C635039688842ECD30020F0BD0000EC0C0020F9
:40310000F3B50026F64381B0002841DB2349096888423DD8029900293AD0204F142204463F1D54432546396810354859401C2FD0FEF754F93868415900292BD0211D0091EB
:4031400046580C21005971430F46C1190C220298FEF70BFC11480021001D0068761C00590C34C0190160416081600C48001D00680159B14200D100260849009A091D86509A
:4031800008684159491E4151FEF722F90020FEBD3046FEBDFEF71CF9FAE70000E80C0020FEB504460D4600201E49089E0860471E009001900290002C11D0486885420ED290
:4031C000002A0CD0002E0AD0642E08D808460C3001681C2068430C18207A002801D03846FEBD0120226020721846FFF7DDFE6060401C13D06681A6810A4827610C30676136
:403200000179A94200D205710021684601810A462846029B00F040F82846FEBD00202072DDE70000F40C002038B50124009400F039F838BDFEB50027164EFF433D4600246B
:403240000EE01C20316860430818017A002906D04068FFF721FF002801D0254603E0641C3079A042EDDA681C12D01C2130684D434419FEF7B3F869466068FFF741FF0546B7
:40328000FEF7A6F8002DD9D1216868468847D5E7FEBD0000000D002038B50024009400F001F838BD1FB500220C49541E0A60002811DB496888420ED808491C220C3109689E
:4032C00050430818406801A9FFF7A0FE401C02D0002004B010BD2046FBE70000F40C0020F0B50021114A4D1E174611710C3F0B46BD6016E008461C2460431668041D35518E
:4033000014680646235014680836A3551468361DA353044616680A34335318301468491C255078688142E5D30020F0BD000D002038B500210091002811DB0F490978884206
:403340000DDA0D4D04010C3529680859002807D0201D0818694600F06FF9002801D0002038BDFEF73BF828680F34015D491E0155FEF72EF8009838BD100D0020F7B582B08A
:40338000002502986E1E06602E48D21C024017462D4A2C4610460C380178106805E02301C358002B0FD0641CE4B28C42F7D3711C28D03401211D40180191039900F02AF978
:4033C00000281FD101E02646F1E71F48016820460C300F521C480399026820460E30115419480399026820460F3011540398784300F0A0F8144900280968085102D00024B6
:40340000009011E001251AE00F48016801980818009900F02CF9002801D0012502E00098C0190090641CE4B203988442ECD3002D05D10298066004480179491C017128467E
:4034400005B0F0BDFCFF00001C0D0020F8B50D4600216A468C461180002839DB23490978884235DA214B04010C3319680A59002A2ED020460C300B5A801C0E5C1846704396
:403480008018954224D3854222D2002006E007465F43BF18AF4206D0401CC0B2B042F6D36046002814D0114E271DC8190C366A46294600F006F900280AD1684600880128E7
:4034C00008D030682946C01900F0D1F8002803D00120F8BD0020F8BDFDF780FF30680F34015D491C0155FDF773FFF3E7100D0020F8B50F46002400F031F8002817D10C492D
:4035000000220B460C334A600EE021011D680E466A501D680C36AA53B61C1D680F31AA551D68641C6A54E4B2BC42EED31A71F8BD100D002000280BD0C01C074A810850682C
:40354000890053884118994203D89368516018187047002070470000100D0020F8B5064600200F4D009029700C0121466846FEF799FC00280CD129460C3100980860301BEB
:40358000001F84B221466846FEF78CFC002801D0FF20F8BD6C800098A8600020F8BD0000100D0020F8B5002827DB19490978884223DA174C05010C342168485900281CD051
:4035C00028460C30085A009028460E300E5C401C0E5420682F1DC01900F064F800280CD12068002445590EE0094829460C300068C01900F03CF8002801D00120F8BD00985D
:403600002D18641CE4B2B442EED30020F8BD0000100D002030B50D4604000BD0A800FFF789FF6060002805D000202570C0436080002030BD012030BD70B50D46040005D068
:40364000002D03D00220205E002801DA012070BDFDF7C4FE0221615E60688900405828606088401E6080FDF7B3FE002070BD70B50D46040007D0002D05D002212078615E69
:40368000401E814201DB012070BDFDF7A7FE6088401C00B26080616880000D50FDF798FE002070BD10B5040009D0227800216068FEF764F90020C0436080002010BD01204B
:4036C00010BDF0B500231D46002802D00224045F0AE00120F0BD46689F00F6598E4201D1012503E05B1CDBB29C42F4DA15700020F0BD00000148007870470000240D002085
:403700007CB505460024FEF76DF9A8796946087000A8062229460130FEF727F90021684604F026FB0C2804D0072804D01F2804D004E0022402E0042400E0272420467CBDD9
:4037400010B500F031F9FFF73DFAFFF741FA10BD70B504460025FEF745F9002C06D0A079012803D8214602F06DFB00E00125284670BD01460120002902D05020088000207C
:403780007047000001460120002905D003485422007850430880002070470000260D002010B502460D49FE204870032410460CF007FC002810D10CF0ABFB00280CD105F014
:4037C0006DF8002808D100F0DFFA002804D104F053FD002800D10024204610BD240D002070B50025044600280ED0A07901280BD8FEF7F8F8A0790028204602D002F0B0FEFB
:4038000003E002F085FE00E00125284670BD0000014610B50120002904D006220248FEF7A4F8002010BD0000280D002001460120002903D0087802490870002070470000A2
:40384000260D002038B504460120002C20D0617801291DD800290BD0FF25E535FEF7C2F80C4828180088C0B22070072803D00EE0FF25CD35F2E70020694608706846FFF7A0
:40388000BBF969460878012801D108202070002038BD000000102E40F8B504460120002C26D06178012902D92278092A20D8002905D0FF25E5352078092803D004E0FF2522
:4038C000CD35F8E708202070FEF78CF82078114F114E08280DD00020FFF7CAF970780128207810D00D4969180880FE2070700020F8BD0120FFF7BCF90720B88105492031F3
:4039000088800120F2E7B8810248217820308180EBE70000C0112E40240D002000102E4070B50E46050001D0002400E00C4C002C11D0E28A500609D5D107C90F022002F01C
:40394000A3FEE08A40218843E08204E0D107C90F012002F099FE3146284602F081FB70BD78140020F8B50546002004460D4E009013E022466946284600F01EFF00980028B2
:4039800001D00CF0FFFAA878214602F0CBF9A878214602F0B9F9641CE4B2308AA042E8D8F8BD00003015002038B51E4CFFF70AF9042813D0052811D0062812D003282AD0AB
:4039C00007280AD100206946087002460120FFF723F8FFF7F7F80128FBD138BD00F048FB38BD02F0EDF900F043FB02F04DFA8007800F0228F4D10C4841880029F0D05B213F
:403A0000095D0029ECD101210170A07D0140022002F03AFE38BD02F0D7F90120FFF702F938BD000078140020340D0020F8B50646002402F097FE0546304602F0ADFE0346E7
:403A40000A480021068A0DE001228A401046174628401F40002803D0002F01D1224394B2491CC9B28E42EFD82046F8BD301500201CB50020694648706846FFF7E3FE01AAC9
:403A800069460A20FEF7C8FF6946042008561CBD10B50C4601F062FA002809D00179002906D0C1788078224602F060FB002010BD022010BD014800787047000050140020CB
:403AC0004030C07E002800D00120704700B500F001F800BD8C2148430749084A40186030417F491CC9B24177D289914201D300214177C8B2704700005814002030150020D6
:403B000013B501F02BFA04000BD001F0C8FD002807D0214601AA0A310620FEF77DFF00201CBD02201CBD000010B50C4601F016FA00280AD001F0B3FD002806D022460449CD
:403B40000A20FEF769FF002010BD022010BD000039140020F3B581B0074601460026029802F0F8FD0446002F01D0002500E0154D002D21D0284601F027FA032C04D139468F
:403B8000029802F043FE06463846029902F0BCF8032C06D0002C10D00121384601F01AFB03E03146384603F02DF8284601F0A0FF0221284601F0B6FFFEBD3846029902F08B
:403BC000A3F8FEBD7814002010B5044603F064FC002801D00C2010BD2078611C02F0C8FBFF2801D01F2010BD02F00EFCFF280AD02178621C02F016F8044821780068026BD3
:403C0000601C904710BD072010BD00004C0D002010B503F041FC002801D00C2010BD02F089FB03480068C06A8047002010BD00004C0D002070B50D46044610210CF0E2F8C7
:403C40001021601806460CF0DDF8334610221946204603F04FFC102130460CF0D3F802202870204604F060FA70BD0000F8B504464078217802028006870FE0781143A67895
:403C800009050002090D0643084601F067F900210546F2B2002812D0002C10D0022F0ED0032F0CD0002A0AD00279092A07D0002A05D0134A5A23527E1B5C9A4207D828899E
:403CC000002104F066F920460CF05CF9FF21002914D10C48224600682946436930469847C0B2FF280AD128464030817EF2B2491C8176FF232146284600F0DDF8F8BD000015
:403D000010140020640D00200020704710B5044603F0C2FB002801D00C2010BD2078611C02F026FBFF2808D002F05EFA044821780068426B601C904710BD1F2010BD00008F
:403D40004C0D002010B504F097FA00F057F9002010BD10B5044600786178E2780843A17811430843217908436179084305D003F085FB002803D00C2010BD122010BD2046EB
:403D800002F0EEFB002010BD10B5FDF747FB02F00BFD044803F0ECFB02F030FA012000F003F810BD20140020F1B586B003A8009005A8019025489F22817A11408172684667
:403DC000FDF72AFE00283FD169460989C90705D01F4806990068C2686846904769460989890706D500282FD11A480068816A06988847002828D1184E002575707573757117
:403E0000F575357675767575B570F570B5713746F5730120BC3738731F20F880FF2130467972A0300175457500F056FA00242046069901F0DFFB002803D1641C2406240E00
:403E4000F5D0FD72BD72B57307B0F0BD10140020640D00204C0D00205814002070B505460E46084602F07EFC0446304602F094FC0121A9400A46224001400A4301D001207C
:403E800070BD002070BD10B50446084602F084FC0121A140014201D0012010BD002010BD10B5FEF78FFE032804D101F08DFF0120FEF7B8FE10BDFEB51C4616460F46054659
:403EC00001F016FEA878FFF701FE02460190334639460094284600F00DF8002808D1A8780199FFF71DFDFF2C02D138460CF04AF8FEBD0000FFB585B005460E980C46FF284D
:403F000010D02B49C00009680A5840180179C0795278814201D9012601E09006860F6846038108E06078A1788006860FE0780002014368460181284601F0BCFB070007D00D
:403F400021462846079A00F0CBFB384609B0F0BD304600F079FC04AE0346039002AA29460096204600F005FB3C20405D002818D0284601F09FFB012813D0684600890096E6
:403F8000C0B20190A878231DFF22079902F01CF868460089039BC2B2A878079902F05CFBD3E7684600890021C0B20091E9E70000600D0020F8B5104F002500242846FFF75A
:403FC00035FD060012D00EE03046E040C007C00F07D02146284601F08FFE21462846FFF7B9FD641CE4B2388AA042EDD86D1C2D062D0EE2D0F8BD00003015002010B502F0E9
:40400000FDF80020FFF7D0FE0CF052F8002010BDF8B5002400F094F80123012800D10124104F00203E4620360425082203E0002801D0002100E031460979002907D0012938
:404040000BD002290BD0114681402143CCB2401C0006000EEBD07C70F8BD1C43F7E72C43F5E700005814002010B5FFF7D1FF10BD10B5FCF786FF0446FEF7A4FD012809D00E
:40408000FEF7A0FD022805D0FDF798FA2046FCF77CFFEEE72046FCF778FF10BD10B50B4681791943817103D08078114602F0A2FA10BD10B582798A43827102D1807802F08B
:4040C000ADFA10BD30B50C4C0220A28A0B4B9978002901D0022906D11D785B78EB18282B01D9032002E0032900D101205105490DC0020143A18230BDC0112E402F0D002046
:4041000000B500F023F8002807D0012805D0032801D0042801D0002000BD012000BD014600B50020C90701D000F00AF800BD014600B50020C90701D000F002F800BD00003E
:4041400001480088000A704720102E400448008B410501D5042070474007800F7047000000102E4038B50446000610D5FFF7EEFF01280CD1684601F02DFE6846007800F04B
:40418000B3FA012001F01CFD0220FFF76DFF0348006801692046884738BD00004C0D002010B5034A0178117002F046F9002010BD2F0D002070B50446FFF7C2FF002801D03E
:4041C0000C2070BDA27B01211F48002A827801D00A4301E05208520082706279012A14D0C17849084900C170184D2868016820468847207901280CD06188208802F07CFFE2
:404200002080207904280FD015E0C2780A43C270EAE72868C168E01D8847E01D02F08CF90B48808C208006E02868C168E01D8847E01D02F081F9074920798870204602F0B6
:4042400009F9002070BD0000581400204C0D0020101400202F0D002008B50178FFF770FF814201D10C2008BD002914D0072069460870FFF745FF012807D10121684600F0D3
:404280008BF8012801D0092008BDFFF71BFF02F015F9012011E0FFF733FF012806D1684601F098FD6846007800F052FA02F0FCF8FFF746FF0028FBD10220FFF7D5FE002093
:4042C00008BD000010B5034A0178517002F072F9002010BD2F0D002038B568460BF0E8FD002801D01F2038BD01210098C9020180418000250571457185710721417385737D
:4043000002F0A8F8009C202200212046FDF736FB25702A460021601CFDF730FB204602F08BF8204602F046F900980BF02BFE042200210248FDF722FB002038BD2F0D00205F
:404340000346084800B5834209D8184600F006FE002804D00089984201D1012000BD002000BD0000FF0E0000074A9179491C8906890E917138220A4092014907090E114324
:40438000084302490840704758140020FF0E0000C006C00E70470000F8B507460E4600240D4803E0002C01D0002500E005462979002905D0641C2406240EF3D00020F8BD79
:4043C0000021204601F016F92E712046FFF7CCFF28813C700120F8BD7814002010B503F0BDF80222002100F003F801F0B3FE10BD10B5094B40074907000F090F185A595A91
:4044000040185043C0086421FDF77EF9002800D1012080B210BD000034290100F7B53D20405C88B015460C46002802D02878042802D200200BB0F0BD694608720026204601
:40444000FFF73EFB012800D00126204603A938300191009023460327A17E34333246206A03F0A0F802A8089900900B46019120463A4603A9243003F01DF802466846007A8F
:404480002870204601F0A2F81046D3E7FFB587B00C4605461078694608723D20005D1746002826D000262046FFF70AFB012800D00126204603A93830019100902346A17E2A
:4044C00034333246206A03F06DF802A80090291D019120462B1D03A924300A9A02F0EAFF02006846007A388002D1204601F06EF810460BB0F0BDF0B505463C20405C89B06B
:4045000016460C4600280CD0307869460873002806D000272046FFF7D3FA012803D003E01F2009B0F0BD012703200890204604A93830019100902346E17E34333A46E069AD
:4045400003F030F86846007B03A928180290009120462B46019504A92430089A02F0DEFF02466846007B3070204601F039F81046D7E7FFB505463C20405C89B016460C467E
:40458000002810D0084601F095F801280BD0308869468883002809D000272046FFF790FA012805D005E000200DB0F0BD0220FBE70127204603A93830019100902346E17EA6
:4045C00034333A46E06902F0EDFF291D2B1D07A8129A6D4607C5204603A924300C9A02F09DFF02466846808B3080204600F0F8FF1046D9E770B50D460446FFF761FA01285B
:404600000AD0E87AA97A00020143A07801F09EFC012808D0002070BD00222421204602F0BDFC242070BD28214C200155204600F0A3FB282070BD0000002801D0002000E08E
:4046400003484030C07F012800D0002070470000781400200146002049070ED50021084B03E0002901D0002200E01A461279022A04D0491C0906090EF3D07047012070470F
:40468000781400200146002049070ED50021084B03E0002901D0002200E01A461279022A04D0491C0906090EF3D07047012070477814002010B5044680346068002803D067
:4046C0000BF074FC0020606010BD4030417070474030817070474030017070470171704792001018C166704770B53C2501F080F9040004D020460021433001F0DBFBFF22AF
:404700002946204600F0D4FB002C02D0A07801F0F1F870BD10B5002801D0002000E00348002802D0008903F07BFC10BD7814002010B5002801D0002000E00448002804D053
:404740000179072901D100F047F810BD7814002010B501F04DF9002802D0807801F0CAF810BD00207047000070B50546008A00281ED01049F122897A1140C90618D52946D5
:4047800040314A8A098A521C4A4392B2D10800D10121540801E0621A94B2A042FBD9FEF7A9FF012804D1298AA878224601F094FC70BD00001014002010B50023054C0B60F5
:4047C000248A944204D992001018C26E0A60C36610BD00003015002038B5044600200090A079002814D14020015D052901D00E290ED168460BF06CFB002809D120460099B8
:4048000002F0AAFB03481021C28A2046FFF746FC38BD00001014002010B50B4604460146184602F027F8002802D020460BF0B4FB10BD13B5044601AA11460620FEF7ECF842
:404840006846818861811CBD002800D10220704770470000F8B504462346401D543300909A1EA078911E01F0D1FA25464035A88A298A8000FCF748FF401E81B2688A884262
:4048800003D96982A07801F039FF20460021433001F010FB27480088E88102F05FFEE989891C8AB26179FFF7A3FD01F053FC02F055FE2A8A6179FFF79BFD074601F03EFC6F
:4048C000688A002806D01C49088A032212021043088202E0002001F005FF1748803801886E8A002E0CD0304648431449FCF7FCFF0004000C01D0401C80B21149488002E063
:404900000F4800214180288A704381B2A07801F05FFEFF2228374932B9B21346204602F0EFFBE98AA07801F0D3FDA07801F00CFAF8BD000080102E40E0112E40710200005F
:40494000340D00207FB504468034616805460E46183108226846FDF708F831462031082202A8FDF702F8102168460BF04BFA6068102108300BF046FA60682B46083024334A
:404980001022694602F0B6FD7FBD10B504460821FFF78FFB10212046FFF78BFB207905281FD006281DD008281AD12189002003F0AFFA072020712046FFF782F801462046DE
:4049C0004030012913D00E21017000210176204600F0A2FF2046FFF76DFE2046FFF7C4FE10BD20890122002103F076FAE1E70521EAE70000FFB581B01F4604460821FFF797
:404A000058FB10212046FFF754FB2079082803D0092804D0042203E00422012501E009220025204600F032FE264600204036307022712046FFF73EFE0398002D02D001280A
:404A400008D00BE001280AD120890022029903F043FA04E02189029803F05AFA012700203076012F04D0204600F056FF05B0F0BD02983073204602F0BDFA05460548012165
:404A8000C28A2046FFF70AFB002DEFD109202071ECE700001014002070B50C460546FFF70FF8012809D108212846FFF702FB0023012221462846FFF79DFF70BD10B5044656
:404AC00000F0E4FD2046FFF7F5FD00214034217010BD70B505461A24FEF7F2FF012809D108212846FFF7E5FA0023012221462846FFF780FF70BD0000F8B50446002000903D
:404B00000E4668460BF0E4F9002801D00D20F8BD8420005908212030009D00F01AFA20460421383000F015FA002E02D1204600F0E9FD2946204602F09EF90E480821C28A51
:404B40002046FFF7ABFA204600F057FF25464035002808D0204600F023F8002801D0092028700020F8BD08202870204600F0C0FFF7E7000010140020014610B540310A46E4
:404B80000978082906D0092907D00A2901D100F091F810BD0B20107010BD00F001F810BD70B50446007925464035052805D0062803D008280FD00C2070BD03220621204606
:404BC00002F0ECF90D480821C28A2046FFF766FA1120287010E006202873204602F00AFA0646AA8A0A20424301212046FFF756FA002E01D109202071002070BD101400203A
:404C000038B504460020009068460BF061F9002801D00D2038BD2046009D00F0B1F908202071204600F06EFD2946204602F056F900213D2001550F2040210855204600F02B
:404C400057FF002038BD00B5024600F01FFD10214032117000BD10B50446FEF731FF012809D04020005D112805D100231A4606212046FFF7BFFE10BD10B5FFF786FE10BD41
:404C800038B504460021684600910BF021F900280CD12046009902F0A2F905480821C28A2046FFF7FBF90D204034207038BD00001014002038B504460021684600910BF0A9
:404CC00007F9002801D00D2038BD2046009902F07BF905480821C28A2046FFF7DFF90C2040342070002038BD1014002000787047F8B50025002801D0002400E01A4C002C25
:404D000028D0204600F0CBFC002823D0207903281CD005281CD026464036B18AA07801F061FCB078012815D10021204601F0BFFD274680373868002802D00BF037F93D6006
:404D40000020B0702079072805D007E0042000E006202071F8BD2046FFF706FD0221204600F0E0FEF8BD00007814002010B54C22115400F04CF810BD10B50446FF21FFF72A
:404D800098F909202071A07801F052FC10BD000038B5FF216A461180002801D0002400E0084C002C0DD011460620FDF735FE684601882046FFF73DFD03480068C169204628
:404DC000884738BD78140020640D002010B504468079002809D022214C200155FF212046FFF767F9204600F012F810BD10B5037902464032002B03D01173092B02D003E035
:404E0000002100E02221117300F001F810BDFEB504460089002700902781207926464036002817D0012815D002280AD112E002AA01A9204601F00CFD002807D101980BF036
:404E4000ABF8204601F02CFD0028F0D02046FEF789FDB776254680352868002802D00BF0A5F82F606868002802D00BF09FF86F60317B002919D0009800F064F8A078002142
:404E800000F076FF2046FFF7A9FAA07801F048F8A07800F02FFDFF212046FFF70AF90B20FFF7E2F800F068FCFEBD1F213173E2E7F8B517460E46054602F04CFB04003CD0E9
:404EC00020460C3000F0E6FF2046062200211830FCF754FD2046062200211230FCF74EFD1648224600683946436A28469847074626702846FEF7E4FD012148406070002D5C
:404F000010D02889608028464030C1782171002E0FD169796171018AE180418A2181808A608106E00648008BC005C00F2071002060803946204602F06EFFF8BD4C0D0020FB
:404F400000102E400A4610B50146002003F080F810BD10B50AF032FD10BD000000B50146FFF716FA002801D0002000E00348002802D002898A4200D0002000BD7814002054
:404F800038B5044680346068002806D168460AF0AFFF002801D100986060606838BD000010B5014600F086FB0128887802D0FEF791FD10BD8C214843024940186030007F28
:404FC00010BD00005814002070B5054604464035A87F012811D1A1788C20084A484380186030067F3046FEF739FF002805D10220A877A078314601F03DF870BD5814002058
:4050000010B50C4CA07A002813D0FEF7D3FF0A48027F417F408B00F0B7FB012809D10020A07200F0EDFE05498989090B01D000F03BFA10BD1415002058140020A0102E402D
:4050400070477047490510B5490F0B00FCF78CFE060704080C0C0F073E21FFF787FE10BD0821FFF7C3FE10BDFFF7D1FE10BDFFF7ADFE10BDF8B507460025002D01D00026F1
:4050800000E0204E00F08AFE3046403044890021418100F08DFE304600F001FB01282BD1A00702D52846FFF723FEE00602D52846FFF76EFEA00601D5FEF77CFF600601D5DA
:4050C00000F014FB200602D5284600F01DF8600702D5284600F02CFA380402D52846FFF727FB780402D52846FFF714FBE00703D021463046FFF7A6FF6D1C2D062D0EBCD06B
:40510000F8BD000078140020F8B5002801D0002400E0284C002C4BD025464035A878012846D1FF278820493700593E46002805D02149897A890601D5878AC68A2046FEF7B3
:40514000BFFC012834D002F009FA2A8A6179FFF74FF9009000F0F2FF00983346283081B23A46204601F0CCFFE98AA07801F0B0F912480188688A124E002810D04843114990
:40518000FCF7B2FB0004000C01D0401C80B27080A07DC107C90F002001F076FA01E000207080288A698A484381B2A07801F010FAF8BD0000781400201014002060112E40C7
:4051C000340D0020710200000149096809680847640D002070B50D460026194A0146002801D0002401E014462034002C26D0204600F060FA01280AD18C20484380186030A6
:40520000007FFEF72BFE002801D101F073FE0D48006881692046884700280CD020464030817EA94202D3491B817600E086762089294602F0AEFE204600F05AFC70BD00003A
:4052400058140020640D002070B503460088FFF785FE040013D000F022FA00280FD02079092819D02546997840352973204601F0C1FE0646A878012803D0AA8A02E00220B2
:4052800070BDEA880A20424301212046FEF706FF002E01D109202071002070BD0EB5002217216B460292198100905A810120029B00990AF01BFF0EBDF8B518480024807A4F
:4052C000002822D1164E0025B089000B22E0204600F000FE1249A039401807882A462146384600F051FA012810D00E480122478305770A4944778A72002D01D0002000E0F5
:405300002030002801D000F0F3FBF8BDB089000B641CE4B20028DAD1F8BD000014150020A0102E405814002010B50088FFF716FE002809D0014640310C460978082905D0D3
:405340000B2903D00C2010BD022010BDFFF728FC002801D009202070002010BD70B503460088FFF7FBFD040008D0254640352878082805D00B2803D00C2070BD022070BD92
:405380008420005910220830991CFCF7EEFA2046FFF7D8FA2878082804D02046FFF78AFC002801D00A202870204600F0A1FB002070BD000010B50C46002121700088FFF701
:4053C000CDFD03000BD000F06AF9002807D00948F121807A0840C00603D4112010BD022010BD022020701A8A1889002102F04CFE002010BD10140020F8B50F46002100914B
:405400000088FFF7ABFD040012D000F048F900280ED0E079410641D4617E02264A07002A08DB8907402500291ADA2843E07135E00220F8BD02F08EF80021017021894180E0
:40544000A1898180217E4170E189C1803E7005460178134802F0F2FA284602F0B9FD1DE0204600F02DF9012806D068460AF030FD002803D00720F8BD2A20F8BDE079009930
:405480002843E071204601F0DFFD607E0421304360760448C28A2046FEF700FE0020F8BD1D040000101400203EB500220F236C460292238100910190628169460EC90020AA
:4054C0000AF014FE3EBD0000F8B50F46054600F08FFA040025D003202071254600264035EE76E6702046FFF7B5F900F0DDFF0920FEF7BAFDA07800F001FD0121204600F049
:4055000011FB2E706E70AE703A4600212046FFF7CFFC0649887B401C8873A078FFF754FEF8BD284601F084F8F8BD00005814002010B5002801D0002000E0094800280DD00F
:40554000014640310A464978022901D100215170807DC107C90F002001F096F810BD00007814002070B503460D460088FFF7F6FC04000BD000F093F8002807D01248F121D8
:40558000807A0840C00603D4112070BD022070BD20464030418A008A491C41430804C10C5888884201D2122070BD20822079072802D12046FFF7D8F80220287020890021A9
:4055C00002F08AFD002070BD10140020016A491C016204D1817E491C4906490E81767047C169491CC16104D1C17E491C4906490EC1767047F0B5074687B003A8009005A812
:4056000000260D460190002F01D0002400E01B4C002C05D06846FCF7FFF9002803D00BE0022007B0F0BD68460089C00704D18C2200212046FCF7A2F911482946006882683F
:4056400020469047050016D1A77066762746267140373E70204600F019F8204601F01CF9084820820848BE77807AF121084000D001202075E682E8B2D3E700007814002059
:40568000640D0020B80B000010140020002101628176C161C17620300177417770470079002805D0012803D0022801D001207047002070474030807F002800D001207047EC
:4056C00040300078002807D0012805D0052803D00E2801D0012070470020704710B5807801F05AF8002800D0012010BD10B500F087FB03498989090B01D0FFF7D5FE10BD19
:40570000A0102E4070B5054604464035A87F002825D1FF206075A0788C21154A484380186030417F8C23491CC9B24177A0785843104B8018DB896030994201D300214177E3
:40574000A0788C21484380186030467F0677A1783046FEF783FB002802D00120A87770BD0220A877A078314600F084FC70BD000058140020301500200020401C0006000E18
:40578000FBD0002070470000F0B515468207920F85B0000A02926A469080002D01D0002400E0524C002C28D0084600F093FB07466846808800280BD00298012843D00228F4
:4057C00041D003280BD03D20005D012870D087E04748381801882046FFF72BF880E00020029002A80AF054FB002807D03D20005D012878D12046FFF7E9FE74E06846029E0C
:405800008388324600213846FDF718F83848381801882046FFF70DF8284600F0A1FA01AA21463046FEF7FAFD002806D030460AF09FFB3D204C21085528E0F577314620469B
:4058400001F090F94FE0002000902089039068460AF00EFB002802D0002005B0F0BD6846009E8388321D00213846FCF7E7FF2048381801882046FEF7DCFF284600F070FA09
:4058800025464035287E00280CD103E02046FFF773FA28E001AA21463046029BFEF7F6FD002806D030460AF059FB3D202873EDE713E00298FEF7CCFF0146039830700398A4
:4058C0000901000A0843707068468088B070000AF0703046FFF7E2FC05E02046FFF776FE284600F03DFA0120B7E700007814002000102E4010B5074A917B002901D0491E29
:4059000091730021FFF776FE002801D0002010BD012010BD58140020F8B5074606464037B87F00282DD0B0788C2100904843234945186035287F0099FEF7A5FA01281ED026
:40594000287F401CC4B21E48C089A04200D800240020B877FF276F772F77A87702460146009800F0F3FC717DFF2903D0304600F054FF777501F0BEFA0025114F19E0032023
:40598000B877F8BD00200090224669463046FEF713FF0099002904D0FF231A463046FEF78AFA641CF889E4B2A04200D800246D1CEDB2F889A842E5D8F8BD000058140020B2
:4059C0003015002010B502460021084B03E0002901D0002000E018460479944204D0491C0906090EF3D0002010BD00007814002000B50120FFF7E6FF00BD10B5044601F00A
:405A0000A9FD2189018080346168416061682831816002F097FA10BDF7B50646087982B00C46092807D0A078F0770846FFF742FE012806D010E030460AF0AEFA022005B03E
:405A4000F0BDA1788C20294A484380186030007FFEF704FA012810D0A078FEF7EDFD01280BD037780121304601F0F0F925462035062F38D00B2F0FD107E06846027C214666
:405A80003046FEF7C9FE0D20D9E72046FEF718F8012801D1002028772046FFF781FA054604AA21463046FEF726FD01205F2108556946097C002001910090A07833463A4658
:405AC000294600F081FA69460A7CA0780323294600F0C2FDA0782946FDF722FF30460AF05BFA0020ABE70120D5E700005814002010B502464032937F0021002B03D1927EFE
:405B0000002A00D00121064A927A002A00D000210279092A00D10121807800F0D5FD10BD1415002070B50C460546FDF7C9FF00280BD1012C06D92879092806D02846FFF7C7
:405B4000CDFD0446002C02D004E0012402E0A87DC007FAD1A87DC107C90F204600F094FD70BD0000012807D0082804D104480282034808300180704701488038FAE7000026
:405B8000A0102E40014908817047000000102E4010B50446FF20F130012C01D1FF20D530002200F0C3FD044A108A044980B2A0430880108210BD000000102E40380D002067
:405BC000034B198A034A89B2814311801982704700102E40380D002010B50446012802D0082C07D102E0FF20D53001E0FF20F13000F094FD0348018A034A89B22143118091
:405C0000018210BD00102E40380D0020034B198A034A89B2014311801982704700102E40380D0020F8B505460120A84086B214460F46012231467C2000F078FD3A46314634
:405C4000782000F073FD6078267800020643E078A2780002024360792379000203430C2045430D2080010549281844182680001D44182280001D40180380F8BD00102E40BD
:405C8000CB065B0E0343480901021943D00108430121C902084301490881704780142E404278037812021343084A1382C37880781B021843908248780B7800020343138370
:405CC000C8788978000201439183704700142E40024A1080000C90801181704700142E40044A002180180288491C89B21029FAD37047000000102E40024A108201488030CA
:405D000081817047A0102E4010B5054A1082084600F030FD024A0021A03A8018018010BDA0102E4010B50B46044600F005F819462046FFF7E1FF10BD024A108201488030A4
:405D400001817047A0102E4010B504490882FF20002220211D3000F0E9FC10BDA0102E40000202494D3008807047000000102E4010B5084B074C0202A03B0029208202D033
:405D800075321A8010BD04490020088088807632F7E70000A0102E40201A2E4000B5034908884880FFF70CFF00BD0000380D002000B502484088FFF729FF00BD380D002009
:405DC00010B5FCF7E9FE10BD014952200880704700102E4000210170704700000748808806492039098B884201D8081A03E00022D243101A401880B27047000020112E40F9
:405E00000148008AC0B27047A0102E4070B5084C049D2082074804890548603006880E8001891180808818806007400F287070BDA0102E40E0112E4001480089704700007B
:405E4000C0102E4000280FD00D4A108B0870000A4870908B8870000AC8700948203000880871000A48717047064A10880870000A487090888870000AC8701089F0E700005C
:405E800040102E40C0112E400148008A70470000001A2E40064B1A8999891B8A0270120A42708170090AC1700371190A4171704760102E40012904D00549098BC90B0170A0
:405EC00070470349403109898907C90FF7E7000000102E40014840897047000030150020044A10820448028980894843101880B270470000A0102E40301500208C21074BCC
:405F0000414300B5C918FF2260314A770A7700228A77114600F01AFA00BD0000581400208C225043074A10B58018FF21603041770177002181770448418EFF201D3000F02D
:405F4000EDFB10BD581400201014002000B5044A1082034880308088022200F003F800BDA0102E4010B50023884201D8081A03E00024E443201A4018044980B2884201D88B
:405F8000824200D90123184610BD0000FF7F000070B55478157824022543D47888232602947834435679127936023243002900D09823044908820348A0381818058084805B
:405FC000028170BDA0102E40FFB581B014460D4607460A9E0B9BFFF783FF002E0AD0009333460021049AFCF7B9FC05484019C45505B0F0BD0021049AFCF796FCF5E7000072
:406000003C0D002070B502460448054D808808242C800B460021FCF787FC70BD30150020A0142E4010B5212402466401044953200880102300212046FCF776FC10BD000085
:4060400000102E40417802780902044B0A431A83C1788078090208439883704760142E40034A1082802001430148803001817047A0102E40054A1082044A6032908B0009F8
:40608000000108439115084390837047A0102E4030B500210F4B0A46012809D0032802D005280AD107E04021198102210A2204E004210C2201E004210D221882054C203428
:4060C0002088C0B205460D42FAD022800021198230BD000080142E4010B5044607480482074801808280032189030820FFF774FD200202497530A039088010BDA0102E4082
:40610000201A2E40054A1082044A60321183000202494B30A039088070470000A0102E40054A491E1082044A60321183000202494C30A03908807047A0102E400349884293
:4061400000D908460249088070470000FF0F000060112E400349884200D908460249888070470000FF0F000060112E408823002900D09823084908820748A038191808882B
:406180001070000A507088889070000AD07008891071000A50717047A0102E4010B51446024606480B46C0880021FCF7A3FB012C02D103495420088010BD0000301500200F
:4061C00000102E40064A11880170090A417091888170090AC1700349542008807047000080142E4000102E400121814010B589B200227C2000F09AFA10BD0000FEB5FF2171
:406200000120FFF7C5FCFF210820FFF7C1FC3020FFF7D6FC3F48802101803F483F4D00784007400F02286FD001286BD100202880002211460320FCF7EFFB394E3949B08D54
:406240008882384F002420373248A0300482308F38822046FFF764FE641C2406240EF3D0B08F38832E48103000F052F9716930690191009069464879C021084369464871E8
:40628000684600F06DF900F055F82548214C40304188A03421838188A1831E49C088C0318880708E38802048002606823920FFF7ADFC184F532038801C490720088354205C
:4062C0003880E020FFF70CFDE820FFF709FDF020FFF706FD0020FEF781F813488682282101838015A0810F48403086815B203880094800784007400F022807D0012801D10A
:406300000B482880FEBDFFE7032090E70848C01CF7E7000000102E4030150020001F2E4010140020C0112E40001A2E4080142E40E0230000044800218183018302497420C9
:40634000603908807047000060102E40074B1882064B6033988B00090001084399158843002A01D11021484098837047A0102E40F3B50D2284B0920100924A780B78120278
:4063800013430393CA788B78120213434A790979FF20120211431A4A8C46918B9E460291118B01911649742260390A80154900220F7821E00121124B9140009C603BE318DD
:4063C0001D8889B21C881B88039E6E407546654064462E435C4026430CD1029B194209D00199D140CB070499DB0F8B4202D1104606B0F0BD521CD2B29742DBD8F8E700003F
:4064000060102E405014002030B50949FF208C8B084A00210125137805E02A468A40224204D0491CC9B28B42F7D830BD084630BD60102E405014002010B50446E020FFF707
:406440004FFC20782246401CC3B20021E020FCF711FA10BD42790021012A02D901214171090342790A430179042914D049001143827B032A01D8D2001143427B52010A439C
:40648000817909021143012252031143054A118300889083704711460122920211430222E5E7000000102E4000B50120FFF788FB01494120088000BD00102E4000B501201F
:4064C000FFF7A4FB01494020088000BD00102E40024A10820148603081817047A0102E4010B5044C208204488180028183815143018210BDA0102E40A0132E40034B188276
:40650000024820388180028070470000A0102E404178027809020A4306490A80C2788378120213438B804279007912021043088170470000C0112E404178027809020A43AE
:4065400006490A81C2788378120213438B81427900791202104308827047000060102E40417802780902084B0A431A83C178827809020A439A8341790079090208430249E5
:40658000203108807047000040102E404178027809020A4306498A80C2788378120213430B814279007912021043888170470000001F2E4010B50446E820FFF791FB207865
:4065C0002246401CC3B20021E820FCF753F910BD024A10820248818370470000A0102E40001A2E40024A10820148603081807047A0102E4010B5044688000521FBF784F8EC
:4066000004490C8204498880200202497230A039088010BDA0102E40001A2E4003490882000202497330A03908807047A0102E4003490882000202497030A0390880704770
:40664000A0102E4003490882000202497130A03908807047A0102E40F8B505461C4617460E46084600F086F8054AB90021431582034AA03A80180180024880194455F8BDC7
:40668000A0102E40410D002030B50E4C238A01251A46012804D0022804D000290BD00CE02A430AE0002908D12A4322825008400020821A4601E05A0852009A4200D0228208
:4066C00030BD0000001A2E40054A1082044A6032908B4023984389010143918370470000A0102E40044A118A0223002801D0194300E0994311827047001A2E4000B5064A5E
:406700001082054860300181002901D0012000E00020FFF7E7FF00BDA0102E40024A801802880A430280704700102E4070B5084BC5182C880023080003D104E040085B1C79
:406740009BB2C607FAD08C439A4022432A8070BD00102E40024A1018405C8007800F7047410D0020024908820148803080897047A0102E408000FF3041307047044B02466D
:406780001B8AFF208B4202D902484018805C7047301500203C0D0020024908820148803000897047A0102E40174902460B680020002B08D10A605207520F012A04D0022AB0
:4067C00010D0086012207047112292018A80CA80032252020A810122D2024A8140228A8105220DE0092252028A80CA80012252030A810322D2024A81012252028A810422C5
:40680000CA810A8270470000301500200A4600B501461046FFF7B2FF00BD38B50C46054600216846009109F053FB002804D1009928464C7000F0FAFB38BD10B5044680788D
:406840000021FFF745FE01212046FFF76BF910BD436E002B0CD00B60014660318B781370826E4266CA788A700021816608467047FF20704710B50346446E6033002C04D084
:40688000846E002C04D0FF2010BD41669A7001E08166DA70002010BD0021416681667047406E002801D000207047FF20704770B50446C0790D46810610D5DF210840E07190
:4068C00000F048FE0570218941804034218A8180618AC180A18A018101F070FA70BD000010B50446FEF7E6FE01280AD1A1788C20054A484380186030007FFDF7AFFA012809
:4069000001D000F0F7FA10BD58140020F8B50E460446FDF7D5F801282BD02079042801D0072825D1F079B77900020743A0783946FFF70CFB25464035012820D03A46711CE2
:40694000204600F084FA02212046FDF7BEFEA07DC107C90F0220FFF797FE688A002807D0E87E002804D1032109020820FFF734F9F8BD01222421204600F010FBF8BD282057
:4069800028732046FEF7F8F9F8BD70B50D460646FDF730FE002852D120213046FDF789FB3446687840346073E87820220002E081A9780843E0816879010228790843218AED
:4069C000814203D0F1791143F1712082E8790102A8790843618A814203D0F1791143F1716082687A0102287A0843A18AE180814203D0F1791143F171A082A08A218A800061
:406A0000FAF782FE401E618A80B2814200D9608201213046FDF75CFEE87AA97A000201430022304600F02AFB608A002807D0E07E002804D1032109020820FFF7CDF870BD0B
:406A4000F8B50C4605460027FDF73AF8012847D0284EB07AC00709D02846403000900078002806D0102803D01F212CE01A212AE001272846FEF784FA002823D02E46803631
:406A80000822611C7068FAF770FF7068617A20300172A17A417270682146183008220B31FAF763FF21462846042213313430FAF75CFF39462846FEF71FF8002810D1002F53
:406AC0000FD012E007210322284600F067FAF28A08212846FDF7E2FA11212846FDF7FBFDF8BD06212846FDF7F9FD009801210176F8BD00001014002010B5FEF73DF810BD30
:406B000038B504460020009020790D46042801D007281BD12046FCF7D3FF012817D0684609F0D6F9002811D10C486A78807A00991040F12210402075607E0822104360766D
:406B4000204600F0B3F92046FDF70BFE38BD08222421204600F022FA38BD00001014002070470000F3B581B004460298FEF7BEF806462046FEF793FD002828D0162E04D310
:406B80002046029900F0F7F821E025464035287800220300FBF7E8F80E1414140808141414080808080808140298154B017800201F5C8F4204D0401C0728F9D3002A0AD095
:406BC0000F49B00008310A58204602999047029809F0CEF9FEBDA078FFF72AFD002301223D212046FDF706FF3D2028732046FFF724FE029809F0BCF92046FEF708F9FEBDF8
:406C00004429010070B50D460021002801D0002400E00C4C002C14D020464030C177807F032802D12046FEF777FE2046FFF758FE162D04D20449A800095820468847FEF7C2
:406C40009BFD70BD78140020A429010010B5014640310C4609780E2903D1FDF7D1FF0120207610BD10B54021095C0F2901D1FDF7EAFF10BD4021095C0F2902D100212030B1
:406C80004177704738B5044600220E4800920D46807AF1210840C0060ED52046FEF710FD012809D0684609F013F9002803D12046009900F05DF938BD2946204600F05BF869
:406CC00038BD00001014002010B51021FDF7F1F910BD10B54978FDF7DFFE10BD10B5FDF7BAFF10BD012120304177704710B54021095C0C2901D1FDF7C3FF10BD10B540213B
:406D0000095C0D2901D1FDF7B7FF10BD70B5044600790D46052803D0062801D0082802D12046FDF7CBFE68784C21085509212046FDF7D4FC2046FFF780FD2046FCF7C0FE21
:406D40000128A07805D0FFF773FC2046FEF7D0FE70BDFFF777FCF8E710B50446FF21FDF7A8F916214C200155A078FFF761FC2046FEF7BEFE10BD70B50C460546FEF79AFCA1
:406D8000002802D02078687570BD21782846FFF744FD70BD70B5054648780C46032802D12846FDF796FE6078122803D110212846FDF77FF90348214600684268284690475C
:406DC00070BD0000640D0020704738B5044600200D46009004212046FDF76BF968782076E8780002A081A9780843A08168790002E08129790843E081607E042108436076C5
:406E000080070CD4684609F063F800281CD12046009900F019F9607E022108436076E079410611D5BF210840E07100F093FB00210090017021894180A1898180217E41702C
:406E4000E189C18001F0C4F838BD7047704770B50446C07815460A4600280AD00020E070C1B2A078FFF794F8A0782946FFF74AF970BD0120F3E770B50546042008700C4640
:406E80008420415908222031601CFAF76EFD29462046042238310930FAF767FD0D2229462046FEF7B9FD002070BD000070B5054609200C46087008220021601CFAF75EFDDD
:406EC000287D607004480922C07AA07029462046FEF7A2FD002070BD101400200B4610B501460B20187001221846FEF795FD002010BD0000FEB50024164F03E0002C01D041
:406F0000002500E03D462846FFF7CAFC00281BD15F20405D002817D16A4601A92846FFF797FC002810D1019869460A7806782946FEF772FD022E07D1A8780121FFF7C4FBEB
:406F400009212846FDF7CAFB641C2406240ED5D0FEBD00007814002010B50B46122119708178D977014601221846FEF755FD10BD10B50B46132119708178D97706490989E4
:406F8000C90603D1C18A40221143C182014601221846FEF741FD10BD20112E4038B50546002000900C46684608F092FF002801D0072038BD00980D2101704470022229467F
:406FC000FEF72AFD002038BD0B4610B501460520187001221846FEF71FFD002010BD0B4610B501460620187001221846FEF714FD002010BD38B5054600200090684608F0CA
:4070000067FF002801D01F2038BD009C022020704C20405D6070A878E0772846FFF70DFC022229462046FEF7F7FC38BD10B50B46072119708178D977014602221846FEF70E
:40704000EBFC002010BD000010B50B460A49044608880C221A704A795A709870000AD870C8881871000A5871062221461846FEF7D3FC002010BD000010140020F8B50446D5
:40708000403417460E460546E289617B8078FFF735FA002F0DD100F061FAE2896979FDF7A7F9FFF757F8608A002800D00120FFF719FBE388A08A984200D90346628A218A49
:4070C000A878FFF70DFAE089E188C0080A30081881B21920C001814200D90146A878FFF781FAA8783146FFF71BF8A87DC107C90F0220FFF7C9FAF8BD00B500F017F800BD78
:4071000010B504468818C018FF302D300649FAF7FBFA4034401C228A81B28A4200D211465000401AE08210BD7102000040184008704770B505461446100702D5A8B2FDF7BA
:4071400099FFE00702D0280CFDF70CF870BD70B5044660C8FCF728FCFBF75AFA2089C01F0300FAF701FE0C07140C181B1E0C0C210C110D0C294630466289FFF7DAFF70BD37
:40718000284600F0C1FB70BDFDF73AFF70BD2846FCF76CFD70BDFCF70DFF70BDFDF750FF70BDFDF74EFF70BDE8B2FEF785F870BDF3B5002187B005910E4603910091019153
:4071C000029192490C8920400490600713D58F484030058A0498400708D50595A80803D1FBF77CFA012801D101200390294600220420FEF7B7FC8648210700907CD583487F
:40720000A03001898348CA0704D0428907231B029A43428142890D460A43428100220820FEF7A0FC0498000766D57B480089029000200690009F77482E466906019036D57A
